:020000040800F2
:10000000E006002089010008091B0008011B000808
:10001000051B0008450200081D1B00080000000029
:10002000000000000000000000000000111B00089C
:1000300049020008000000000D1B0008151B000805
:10004000A3010008A3010008A3010008A301000800
:10005000A3010008A3010008A3010008A3010008F0
:10006000A3010008A3010008A3010008A3010008E0
:10007000A3010008A3010008A3010008A3010008D0
:10008000A3010008A3010008A3010008A3010008C0
:10009000A3010008A3010008A3010008A3010008B0
:1000A000A3010008A3010008A3010008A3010008A0
:1000B000A3010008A3010008A3010008A301000890
:1000C000A3010008A3010008A3010008A301000880
:1000D000A3010008A3010008A3010008A301000870
:1000E000A3010008A3010008A301000800F002F822
:1000F00000F03AF80AA090E8000C82448344AAF188
:100100000107DA4501D100F02FF8AFF2090EBAE885
:100110000F0013F0010F18BFFB1A43F0010318473B
:10012000301C0000501C0000103A24BF78C878C171
:10013000FAD8520724BF30C830C144BF04680C60ED
:10014000704700000023002400250026103A28BF35
:1001500078C1FBD8520728BF30C148BF0B60704739
:100160001FB51FBD10B510BD00F031F81146FFF7E7
:10017000F7FF01F0D5FC00F04FF803B4FFF7F2FFF2
:1001800003BC00F057F800000948804709480047C1
:10019000FEE7FEE7FEE7FEE7FEE7FEE7FEE7FEE737
:1001A000FEE7FEE704480549054A064B7047000094
:1001B000191B0008ED000008E0000020E006002008
:1001C000E0020020E002002070477047704775464B
:1001D00000F02CF8AE4605006946534620F00700B3
:1001E000854618B020B5FFF7DDFFBDE820404FF091
:1001F00000064FF000074FF000084FF0000BAC4630
:10020000ACE8C009ACE8C009ACE8C009ACE8C0097A
:1002100021F007018D46704710B50446AFF300800A
:100220002046BDE81040FFF7A8BF00000048704717
:100230001800002001491820ABBEFEE7260002008E
:1002400070470000FEE7000070470000B0B50446AC
:1002500000F01AF9054640F20000C2F200000078F2
:10026000611C18BF044400BF00F00EF9401BA042FF
:10027000FAD3B0BD2DE9F04F82B041F20042C4F292
:1002800001020E680423904208BF0323002E00934E
:1002900000F0F68040F20C4E4FF6FF7CC4F2010EE7
:1002A00000220124C1F2100C4FF0000A4FF00009A7
:1002B00043E000BF012502F00C040F27A7402BEA02
:1002C000070705FA04F43C4343F82640D1F804B08C
:1002D00040F20045C4F201055FEACB332B6854BFFE
:1002E00023EA080343EA08032B606B685FEA8B3458
:1002F00054BF23EA080343EA08036B605FEACB2498
:10030000AB6854BF23EA080343EA08035FEA8B247F
:10031000AB60DEF800304FF0010454BF23EA08035D
:1003200043EA0803CEF800300E680AF1010A36FAF3
:100330000AF302F1040200F0A38004FA0AF816EAB4
:10034000080FF1D04B68634512DC122B56D8DFE85A
:1003500003F0350B4549555555555555555555558A
:100360005555554D510000BFD1F80C9046E000BFE7
:100370004FF6FF77C1F22107BB420FDC0027C1F225
:100380001107BB421AD00027C1F21207BB4215D099
:100390000027C1F22107BB4210D02FE00027C1F295
:1003A0002207BB420AD00027C1F23107BB4205D069
:1003B0000027C1F23207BB4220D100BF8B684BB18E
:1003C000012B14BFC0F81480C0F810804FF008094A
:1003D00014E000BF4FF0040910E000BFCB6803F148
:1003E00008090BE04FF0000908E000BFCB6803F1FB
:1003F000040903E0CB6803F10C0900BF134605466E
:10040000BAF1080F24BF203B04352E680F279F4008
:10041000BE4309FA03F333432B60CB79DB067FF548
:1004200083AF41F21804C4F2020423684FEA9A062B
:1004300043F001032360236840F6000403F0010346
:100440000193019B40F20043C4F20103A3F57E73C4
:1004500053F826B0C4F20104A0420FD040F6004485
:10046000C4F20104A0423FF425AF41F20004C4F2FB
:100470000104009DA04208BF02251CE700251AE7E1
:1004800002B0BDE8F08F000040F2DC00C2F20000D4
:100490000068704770B5B8B3044690F83D0028B9BD
:1004A000002084F83C00204600F070FF242084F8EF
:1004B0003D002068016821F001010160016841F4FC
:1004C00000410160016821F40041016001F014F96C
:1004D00048F28041C0F21E0140F60013D4F804E057
:1004E00088424FF00001C0F23D0348F2A16C4FF08A
:1004F000000238BF01219842C0F2010C38BF01222E
:10050000E64538BF0A460AB1012070BD4DF6836149
:10051000C4F21B31A0FB01122168950C4B684FF40B
:10052000967623F03F0343EA9243754344F6D3564D
:100530004B60C1F262060B6AA5FB0656B50923F0B3
:100540003F03E64538BF950C6A1C1A430A62CA6924
:1005500048F2A0664CF6FF73C0F20106B64522EAE7
:1005600003020BD801384FEA4E03B0FBF3F0013021
:100570006FF31F30042898BF04201EE0A3680138E1
:1005800063B119230EFB03F3B0FBF3F001306FF3FB
:100590001F3078B100F5804008E000BF0EEB4E033D
:1005A000B0FBF3F001306FF31F3028B100F50040CD
:1005B00003E000BF012000E001201043C86108688B
:1005C000D4E9072320F0C00010431843086088686E
:1005D00048F2FF3204F10C0690434CCE184310430E
:1005E000A5698860C86820F0FF0030432843C860D0
:1005F000086840F00100086000202021206484F891
:100600003D10206384F83E0070BD00002DE9F04FDE
:1006100081B01D4690460E460446FFF735FF94F81C
:100620003D10202918D107462168886980070FD519
:10063000FFF72AFFC01B1928F6D9002020212063CC
:1006400084F83D1084F83E00216C0225C1E000BF13
:1006500094F83C00012805D10225284601B0BDE8E8
:10066000F08F00BF012084F83C000868C00703D168
:10067000086840F001000860086806F0FE0920F4F0
:1006800000600860242084F83D00002020640020E1
:10069000CFF6FF70012605F1010A4FF0A00BE062D2
:1006A000B8F1020F98BF4FF00208086840F480705C
:1006B00008604869C0070FD1BAF1000F56D0002D6D
:1006C00000F09C80FFF7E0FEC01BA84200F298807B
:1006D00021684869C007F5D0C1F81090FFF7D4FE33
:1006E00021684B694A6994F83D70A02F07461ED0D7
:1006F00013F0020008BF12F4806018D1FFF7C4FEA7
:1007000035B1C01BA84288BF84F83DB002E000BFED
:1007100084F83DB021684A69486994F83D30A02BBF
:1007200005D012F0020208BF10F48060E6D020204D
:1007300084F83D0048690A68800742F400720A6044
:1007400022D46FF4806048618869800709D500BFB2
:10075000FFF79AFEC01B192832D8216888698007E4
:10076000F6D401364645A0D13CE000BF4869C00739
:10077000B2D14869C00704BF48695FEAC070ABD115
:100780004869C007F2D0A7E70025009548690090A6
:100790008869009000988869800708D5FFF774FE83
:1007A000C01B19280CD8206880698007F6D4202047
:1007B00084F83D0084F83C50284601B0BDE8F08F35
:1007C00000202021206384F83D1084F83E00216C35
:1007D000012541F02001216484F83C00284601B045
:1007E000BDE8F08F202084F83D000020012584F82A
:1007F0003C00284601B0BDE8F08F00BFFFF744FE83
:1008000000202021206384F83D1084F83E00216CF4
:10081000032541F020012164216884F83C00086828
:10082000C00544BF4FF400702064284601B0BDE805
:10083000F08F00002DE9F04782B0044600201F46EB
:10084000164688460090FFF71FFE94F83D102029B9
:100850001CD1054620688169890713D5FFF714FE6E
:10086000401B1928F6D900202021206384F83D1070
:1008700084F83E00216C41F02001216484F83C00A2
:1008800004E000BF94F83C10012903D1022002B01B
:10089000BDE8F087012184F83C100168C90703D145
:1008A000016841F001010160016821F4006101600B
:1008B000222184F83D10102184F83E10002121648B
:1008C00066626785618D21850021CFF6FF71E16247
:1008D000E16A026811F5803F42F48062026018BF4D
:1008E000012919D1016841F48071016041690A9EB2
:1008F000C90724D1711C18D0002E00F0CB8000BF96
:10090000FFF7C2FD401BB04200F2C680206841697B
:10091000C907F5D013E000BF0829E3D0216B1129E6
:10092000E0D0E3E74169C90709D14169C90706D1A8
:100930004169C90704BF41695FEAC171F2D0216909
:10094000B1F5804F08D148F00101C9B20161416998
:10095000890740F1CC8003E1062101EAD81707F1AD
:10096000F00101614169090738D44169721C01F441
:10097000806113D0002940F0EA80002E00F06A82E6
:10098000FFF782FD401BB04200F266822068416999
:10099000090723D441694905F2D5D8E0002940F080
:1009A000D6804169090719D44169490500F1CF8012
:1009B0004169090712D44169490500F1C8804169BC
:1009C00009070BD44169490500F1C1804169090754
:1009D00004D441694905E4D5B9E000BF5FFA88F164
:1009E00001614169890739D44169721C01F4806150
:1009F00014D0002940F0AB80002E00F02B82FFF7CE
:100A000043FD401BB04200F22782206841698907FC
:100A100024D441694905F2D599E000BF002940F08E
:100A200096804169890719D44169490500F18F8091
:100A30004169890712D44169490500F188804169FB
:100A400089070BD44169490500F181804169890713
:100A500004D441694905E4D579E000BF0021019142
:100A600041690191816901910199016841F48071A5
:100A700001604169C90734D1711C28D056B1FFF714
:100A800003FD401BB04207D820684169C907F6D072
:100A900027E000BFFFF7F8FC00202021206384F846
:100AA0003D1084F83E00216C41F020012164216852
:100AB00084F83C000868C00544BF4FF4007020640F
:100AC000012002B0BDE8F0874169C90709D1416939
:100AD000C90706D14169C90704BF41695FEAC1710D
:100AE000F2D047F0F10101614169890738D44169C9
:100AF000721C01F4806111D049BB002E00F0AA8164
:100B0000FFF7C2FC401BB04200F2A6812068416999
:100B1000890725D441694905F2D518E0B9B9416979
:100B200089071DD44169490511D44169890717D442
:100B3000416949050BD44169890711D441694905C7
:100B400005D4416989070BD441694905E7D5016896
:100B500041F4007101606FF48061416104207CE127
:100B6000218D022910D0012924D0002938D100215B
:100B7000019141690191816901910199016841F4F3
:100B80000071016037E000BF016841F4006101605D
:100B9000EFF3108072B60020019020684169019146
:100BA000816901910199016821F48061016062B657
:100BB00021E000BF016821F480610160EFF3108043
:100BC00072B600200190206841690191816901910C
:100BD0000199016841F40071016062B60BE000BF49
:100BE000016841F480610160002101914169019136
:100BF000806901900198208D002800F01F8140F24B
:100C000008084BF28959771CC2F20008C1F2F84972
:100C10004FF0230A80B2032818D8022840D00128B8
:100C200068D1002E00F0D6802068014651F8142FBC
:100C3000520600F1D3800868C00600F14381FFF737
:100C400023FC401BB042EFD931E100BF86B100BFA9
:100C50002068014651F8142F52060ED40868C006C9
:100C600000F13081FFF710FC401BB042F0D91EE1CB
:100C700020684169490640F113810069616A087082
:100C8000606A2268411C208D616201382085638D75
:100C9000013B638553695B0740F1AC8010699FE0BD
:100CA0002068416949070FD4002F00F0A780002E6B
:100CB00000F01C81FFF7E8FB401BB04200F21881F6
:100CC000206840694007F5D5EFF3108072B62068C0
:100CD000616A026842F40072026000690870606A2A
:100CE000218D01306062481E2085608D013860854D
:100CF00062B66AE02068416949070FD4002F00F00E
:100D00008D80002E00F0F280FFF7BEFB401BB0424A
:100D100000F2EE80206841694907F5D5016821F4A9
:100D200080610160EFF3108072B62068616A00692B
:100D30000870606A218D0130013960622185618D02
:100D400001396185D8F80010C908A1FB0912110A00
:100D500001FB0AF1009100990139009100990029E5
:100D600000F08C8021684A6952071ED4009901392D
:100D700000910099002900F0818021684A6952079A
:100D800013D40099013900910099002976D0216887
:100D90004A69520709D40099013900910099002944
:100DA0006CD021684A695207D5D50A6842F40072AE
:100DB0000A6009690170606A218D01306062481E15
:100DC0002085608D0138608562B62068616A00699F
:100DD00006E000BF20684169490661D50069616A83
:100DE0000870606A218D01306062481E2085618D27
:100DF0000139618501047FF40DAF1FE041694907A6
:100E00003FF562AF416949075CBF41695FEA4171E3
:100E10003FF55AAF41694907F0D555E741694907A0
:100E20003FF57CAF416949075CBF41695FEA4171A9
:100E30003FF574AF41694907F0D56FE7202084F88A
:100E40003D00002084F83E0084F83C0002B0BDE87C
:100E5000F08700BFFFF718FB20200021202221632C
:100E600084F83D2084F83E10226C1043206484F8FE
:100E70003C10012002B0BDE8F08700BF0020202117
:100E8000206384F83D1084F83E00216C41F020017D
:100E9000216462B684F83C00012002B0BDE8F0870E
:100EA00050F8141FC90601460CD4FFF7EDFA0020D4
:100EB0002021206384F83D1084F83E00206C40F02F
:100EC00020000AE06FF0100008600020202120635D
:100ED00084F83D1084F83E00206C2064002084F8E3
:100EE0003C00012002B0BDE8F08700BFFFF7CCFA5C
:100EF00000202021206384F83D1084F83E00216CFE
:100F000041F02001216484F83C00012002B0BDE8DA
:100F1000F08700002DE9F04381B01F461646884651
:100F20000446FFF7B1FA94F83D10202920D1054678
:100F300020688169890717D5FFF7A6FA401B192891
:100F4000F6D900202021206384F83D1084F83E006B
:100F5000216C022641F02001216484F83C003046D7
:100F600001B0BDE8F08300BF94F83C10012905D121
:100F70000226304601B0BDE8F08300BF012184F8AD
:100F80003C100168C90703D1016841F0010101600B
:100F9000016821F400610160212184F83D101021D5
:100FA00084F83E100021216466626785618D218589
:100FB0000021CFF6FF71E162E16A11F5803F18BFB1
:100FC000012919D1016841F4807101604169DDF89E
:100FD0002090C90723D119F1010116D0B9F1000FF2
:100FE00046D000BFFFF750FA401B484542D8206862
:100FF0004169C907F6D012E00829E3D0216B122914
:10100000E0D0E3E74169C90709D14169C90706D1C1
:101010004169C90704BF41695FEAC171F2D0216922
:10102000B1F5804F02D1FE2161E000BF062101EA47
:10103000D811F03101614169090757D4416919F1AB
:10104000010201F480612FD0002946D1B9F1000FCF
:1010500000F04281FFF718FA401B484500F23E813C
:1010600020684169090741D441694905F2D534E056
:10107000FFF70AFA00202021206384F83D1084F84D
:101080003E00216C012641F020012164216884F892
:101090003C000868C00544BF4FF40070206430462F
:1010A00001B0BDE8F08300BFB9B9416909071DD49B
:1010B0004169490511D44169090717D441694905B6
:1010C0000BD44169090711D44169490505D4416927
:1010D00009070BD441694905E7D5016841F400715E
:1010E00001606FF4806141610420F8E0FF2101EAB2
:1010F00008010161416989073AD4416919F1010286
:1011000001F4806112D051BBB9F1000F00F0E08012
:10111000FFF7BAF9401B484500F2DC8020684169BE
:10112000890725D441694905F2D518E0B9B9416963
:1011300089071DD44169490511D44169890717D42C
:10114000416949050BD44169890711D441694905B1
:1011500005D4416989070BD441694905E7D5016880
:1011600041F4007101606FF4806141610420B6E0D8
:101170000026009641690091816900910099218DB6
:10118000002900F0958009F10108014651F8142F5B
:10119000120635D4B8F1000F16D0B9F1000F00F0E7
:1011A000AF8000BF0868400500F1B280FFF76CF91E
:1011B000401B484500F2A9802068014651F8142FD1
:1011C0001206EFD51CE000BF0A68520500F1A080AE
:1011D0000A68120614D40A68520500F199800A6858
:1011E00012060DD40A68520500F192800A681206B0
:1011F00006D40A68520500F18B800A681206E3D50E
:10120000636A194611F8012B02616162618D01392F
:101210006185278D0146A7F1010CA4F828C051F87B
:10122000142F52070DD55FEA0C420AD05A78A7F165
:10123000020C02619A1C6262628D013A6285A4F816
:1012400028C00A6852072FD4B8F1000F14D0B9F1A2
:10125000000F7BD00868400500F18080FFF714F98B
:10126000401B484577D82068014651F8142F520793
:10127000F0D5B4F828C017E00A6852056ED40A68A1
:10128000520711D40A68520568D40A6852070BD471
:101290000A68520562D40A68520705D40A685205E2
:1012A0005CD40A685207E7D55FEA0C417FF46DAF62
:1012B000016841F400710160202084F83D0084F849
:1012C0003E6084F83C60304601B0BDE8F08300BF6A
:1012D000FFF7DAF8202002E0FFF7D6F820200021FF
:1012E0002022216384F83D2084F83E10226C0126E0
:1012F0001043206484F83C10304601B0BDE8F08310
:101300000868400504D4FFF7BFF8202004E000BFC0
:101310006FF480600860042000212022216384F89B
:101320003D2084F83E10226C1043206484F83C1069
:10133000206C042825D120680126016841F4007141
:101340000160304601B0BDE8F08300BF0868400589
:1013500004D4FFF799F8202004E000BF6FF4806008
:101360000860042000212022216384F83D2084F8B5
:101370003E10226C1043206484F83C10206C04283A
:10138000D9D00126304601B0BDE8F08310B586B053
:1013900045F200410068C4F2000100228842049234
:1013A00002D006B010BD00BF41F21804C4F202041E
:1013B000206840F008002060206800F008000190DC
:1013C0000198C0200290122003900320059001F59F
:1013D000384002A9FEF74EFF606840F400106060DC
:1013E000606800F400100190019806B010BD000084
:1013F00040F2000040F2DC01C2F20000C2F2000143
:1014000000780A68104408607047000080B542F216
:101410000000C4F20200016841F0100101600320E5
:1014200000F07AF80F2000F005F800F027F800200F
:1014300080BD000070B540F20006C2F2000640F226
:1014400008013278C2F200014FF47A730968B3FBE5
:10145000F2F20446B1FBF2F1084600F03BFB0F2C20
:101460004FF0010508D838B94FF0FF30214600226F
:10147000002500F025F87460284670BD82B041F266
:101480001800C4F202000168022241F0010101606B
:10149000016801F0010101910199416841F0805119
:1014A0004160406800F08050009000980420C4F231
:1014B0000100016862F31A61016002B07047000028
:1014C00010B54EF60C5CCEF2000CDCF80030C3F325
:1014D000022E8EF00704042C28BF0424BEF103035F
:1014E0004FF0FF3E0EFA04F438BF0023A1439940A9
:1014F0000EFA03F39A43114300F00F02043A6244D8
:1015000009010C3200F16043B0F1FF3FC8BF03F5A1
:101510006442117010BD00004EF60C51CEF2000175
:101520000A684FF6FF031A4060F30A2242F0806017
:1015300040F0FD70086070472DE9F04381B000284D
:1015400000F0858042F20008C4F202080446D8F890
:1015500000000D4600F0070088420CD2D8F80000C9
:1015600020F007002843C8F80000D8F8000000F079
:101570000700A8426BD1206841F204098107C4F238
:10158000020917D5410705D5D9F8001041F4E061EB
:10159000C9F80010010705D5D9F8001041F46051D1
:1015A000C9F80010D9F80010A26821F0F001114329
:1015B000C9F80010C00741D1D8F8000000F00700BA
:1015C000A8420CD9D8F8000020F007002843C8F83A
:1015D0000000D8F8000000F00700A84237D12068CA
:1015E000410707D5D9F80010E26821F4E061114302
:1015F000C9F80010000708D5D9F80000216920F4C7
:10160000605040EAC100C9F80000D9F8002002F09B
:101610000C00082841F20020C0F27A0050D141F6B7
:101620004053C2F38341C0F60003595CD2033BD45C
:1016300040F60010C0F23D00484341E060680228D7
:101640000AD001282AD159F8041C890308D40120A2
:1016500001B0BDE8F08300BF59F8041C8901F6D53C
:10166000D9F8001021F003010843C9F80000FEF783
:101670000BFF064641F28837D9F80000616800F098
:101680000C00B0EB810F97D0FEF7FEFE801BB84236
:10169000F2D9032001B0BDE8F08300BF59F8041C63
:1016A0008907D4D5DCE700BFD9F8002041F62653DE
:1016B000C2F34042C0F600039A5C4843B0FBF2F02C
:1016C000D9F8001041F62852C1F30311C0F6000208
:1016D000515C40F2080220FA01F140F20400C2F22B
:1016E00000000068C2F200021160FFF7A3FE0020B4
:1016F00001B0BDE8F083000040F2080041F20401AF
:10170000C2F20000C4F202010068096841F63852D2
:10171000C1F30221C0F60002515CC84070470000CE
:101720002DE9F04182B0002868D00446007841F2EB
:101730000006C007C4F2020625D0706800F00C0055
:1017400004281BD0706800F00C00082802D17068D3
:10175000C00313D46068002800F06881B0F5A02FA2
:1017600000F07C81B0F5803F00F07C81306820F48F
:1017700080303060306820F4802076E1306880036B
:1017800001D56068D0B32078800718D5706810F054
:101790000C0F07D0706800F00C0008286ED170683C
:1017A000C0036BD43068800702D52069012825D199
:1017B0003068616920F0F80040EAC10030602078AC
:1017C00000071FD42078400732D4E56995B17068CE
:1017D00000F00C00082840F08F80012D0ED07068BA
:1017E000216A00F480328A4208D1616A00F47010E4
:1017F000884203D1002002B0BDE8F081012002B090
:10180000BDE8F081A069002862D00020C4F2422027
:101810000121C0F88014FEF737FE0546706A800784
:1018200000F18C80FEF730FE401B0228F6D92AE139
:10183000F06910F0805808D1F06940F08050F061F4
:10184000F06900F080500090009847F20007C4F261
:1018500000073868C00529D4386840F480703860C3
:10186000FEF712FE054600BF3868C0051ED4FEF71D
:101870000BFE401B6428F7D905E100BF2069002852
:1018800040F20000C4F2422000F082800121016099
:10189000FEF7FAFD054600BF306880073FF588AFC8
:1018A000FEF7F2FD401B0228F6D9ECE0E0680028C4
:1018B00000F08080052800F09780012800F09880D3
:1018C000306A20F001003062306A20F0040092E0BB
:1018D0000020C4F242200021C0F88014FEF7D4FD9D
:1018E000054600BF706A80077FF56CAFFEF7CCFD40
:1018F000401B0228F6D9C6E00027C4F24227002088
:101900003866FEF7C1FD022D05460BD13068800117
:1019100040F1BE80FEF7B8FD401B02284FF00300E7
:10192000F4D968E7306880017FF564AFFEF7ACFD5D
:10193000401B02284FF00300F4D95CE740F2080096
:10194000C2F20000006844F6D351C1F26201A0FB6C
:101950000101480A019000BF00BF0198411E002804
:1019600001913FF42FAF00BF0198411E0028019163
:101970003FF428AF00BF0198411E002801913FF4B9
:1019800021AF00BF0198411E00280191E4D119E761
:1019900000210160FEF778FD054600BF3068800732
:1019A0007FF50DAFFEF770FD401B02284FF00300DE
:1019B000F4D920E7306A20F001003062306A20F06C
:1019C00004003062FEF760FD054641F2883700BF33
:1019D000306A800720D5FEF757FD401BB8424FF014
:1019E0000300F5D907E700BF306A40F00400306219
:1019F000306A40F001003062FEF746FD054641F2D4
:101A0000883700BF306A800706D4FEF73DFD401BD3
:101A1000B842F7D937E000BFB8F1000F7FF4D5AE78
:101A2000F06920F08050F061CFE600BF306820F40C
:101A300080303060306820F480203060FEF724FD74
:101A4000054600BF306880037FF59DAEFEF71CFDA4
:101A5000401B64284FF00300F4D9CCE6306840F412
:101A600080203060306840F480303060FEF70CFD3C
:101A7000054600BF306880033FF585AEFEF704FDE4
:101A8000401B6428F6D9032002B0BDE8F08100BFF6
:101A9000206AB0F5803F05D17168A26821F4003159
:101AA000114371607168626A21F474111043084334
:101AB000706001203866FEF7E7FC0446306880015C
:101AC0003FF598AEFEF7E0FC001B02284FF0030044
:101AD000F4D990E6411E0020B0EB116F1CBF01202D
:101AE00070474EF21002CEF2000251604EF62351C2
:101AF000CEF20001F0230B70072190601160704757
:101B0000FEE70000FEE70000FEE70000704700006F
:101B100070470000FFF76CBC70470000FEE7000054
:101B200090B0FFF773FC00244FF480300226CDE91B
:101B30000704CDE90D604FF4E01001250F9006A8D1
:101B4000CDE90B44CDE9094406950A95FFF7E8FD78
:101B500050B140F27800C2F200004570EFF31080FF
:101B600072B600BFFEE700BF0F20CDE901064FF4BB
:101B70008060CDE9040401A802210394FFF7DCFC96
:101B800050B140F27800C2F2000001214170EFF341
:101B9000108072B6FEE700BF41F21800C4F20200E6
:101BA000016840F2780441F0200101600168C2F24E
:101BB000000401F02001069106990168002241F01D
:101BC0000401016001684FF4804301F004010691B3
:101BD0000699016841F008010160006845F2004182
:101BE00000F0080006900698C4F20001204640F874
:101BF000101F48F2A061C0F20101C0E90112C0E962
:101C00000323C0E90522C0E90722FEF743FC38B1EF
:101C100001206070EFF3108072B600BFFEE700BFD6
:101C200004F110052846D021052201234FF00108B8
:101C3000FEF7ECFC30B184F80180EFF3108072B64F
:101C4000FEE700BF40F20C02C2F200022846D0219B
:101C50000823CDF80080FFF75DF9A61C43E000BF24
:101C6000A078E178C0F3021707EB870700F00F00B8
:101C700000EB47006072C1F30210227900EB800094
:101C800001F00F0101EB4000A072C2F30010637974
:101C900040EA800002F00F0101EB4000A179E07200
:101CA00003F007002073C1F3011040EA800001F047
:101CB0000F0101EB4000E1796073C1F3001040EACD
:101CC000800001F00F0101EB4000217AA0730809A8
:101CD00000EB800001F00F0101EB4000E0734FF4D6
:101CE0007A70FEF7B3FA2846D02105220123FEF7C9
:101CF0008DFC38B92846D02122460123CDF800803A
:101D0000FFF708F92846D02105220123FEF77EFCC3
:101D10000028A5D12846D02132460723CDF80080DF
:101D2000FEF788FD9CE701020000000000000000B3
:101D30000102030406070809000000000102030471
:101D400002030405060708090A0B0C0D0E0F1010FC
:101D5000701D000800000020180000002801000885
:101D6000881D000818000020C80600004401000873
:101D700001000000100000000024F4000027597149
:081D800000311299000000007F
:04000005080000ED02
:00000001FF
